:200000000C94F1020C9419030C9419030C9419030C9419030C9419030C9419030C94190329
:200020000C9419030C9419030C9419030C9419030C9419030C9419030C9419030C941903E0
:200040000C9481150C9419030C9419170C944A170C9419030C9419030C9419030C941903ED
:200060000C9419030C94190330F0F0F0F030F8BE9FFFF8C0C0C08000203C3F3F1F191F7B30
:20008000FBFEFE070707030000000000003E5B4F5B3E3E6B4F6B3E1C3E7C3E1C183C7E3CF1
:2000A000181C577D571C1C5E7F5E1C00183C1800FFE7C3E7FF0018241800FFE7DBE7FF302C
:2000C000483A060E2629792926407F050507407F05253F5A3CE73C5A7F3E1C1C08081C1C2B
:2000E0003E7F14227F22145F5F005F5F06097F017F006689956A606060606094A2FFA29495
:2001000008047E040810207E201008082A1C08081C2A08081E101010100C1E0C1E0C303889
:200120003E3830060E3E0E06000000000000005F00000007000700147F147F14242A7F2A15
:2001400012231308646236495620500008070300001C2241000041221C002A1C7F1C2A0821
:20016000083E080800807030000808080808000060600020100804023E5149453E00427FC7
:20018000400072494949462141494D331814127F1027454545393C4A494931412111090799
:2001A0003649494936464949291E000014000000403400000008142241141414141400412D
:2001C00022140802015909063E415D594E7C1211127C7F494949363E414141227F414141D1
:2001E0003E7F494949417F090909013E414151737F0808087F00417F41002040413F017F90
:20020000081422417F404040407F021C027F7F0408107F3E4141413E7F090909063E4151F9
:20022000215E7F09192946264949493203017F01033F4040403F1F2040201F3F4038403F43
:20024000631408146303047804036159494D43007F4141410204081020004141417F0402C7
:200260000102044040404040000307080020545478407F284444383844444428384444282A
:200280007F385454541800087E090218A4A49C787F0804047800447D40002040403D007F2A
:2002A0001028440000417F40007C047804787C080404783844444438FC182424181824243A
:2002C00018FC7C08040408485454542404043F44243C4040207C1C2040201C3C4030403C27
:2002E00044281028444C9090907C4464544C4400083641000000770000004136080002019A
:200300000204023C2623263C1EA1A161123A4040207A385454555921555579412154547873
:2003200041215554784020545579400C1E52721239555555593954545459395554545800CB
:2003400000457C410002457D420001457C40F0292429F0F0282528F07C54554500205454B6
:200360007C547C0A097F4932494949323248484832324A4848303A4141217A3A42402078F4
:20038000009DA0A07D39444444393D4040403D3C24FF2424487E4943662B2FFC2F2BFF0974
:2003A00029F620C0887E090320545479410000447D413048484A32384040227A007A0A0A8A
:2003C000727D0D19317D2629292F28262929292630484D4020380808080808080808382FC0
:2003E00010C8ACBA2F102834FA00007B000008142A142222142A1408AA005500AAAA55AA65
:2004000055AA000000FF00101010FF00141414FF001010FF00FF1010F010F0141414FC000E
:200420001414F700FF0000FF00FF1414F404FC141417101F10101F101F1414141F0010102D
:2004400010F0000000001F101010101F10101010F010000000FF101010101010101010FF50
:2004600010000000FF140000FF00FF00001F10170000FC04F414141710171414F404F400A7
:2004800000FF00F714141414141414F700F7141414171410101F101F141414F4141010F0C3
:2004A00010F000001F101F0000001F14000000FC140000F010F01010FF10FF141414FF143E
:2004C0001010101F00000000F010FFFFFFFFFFF0F0F0F0F0FFFFFF0000000000FFFF0F0F09
:2004E0000F0F0F38444438447C2A2A3E147E02020606027E027E0263554941633844443C40
:2005000004407E201E2006027E020299A5E7A5991C2A492A1C4C7201724C304A4D4D303008
:2005200048784830BC625A463D3E494949007E0101017E2A2A2A2A2A44445F444440514A54
:20054000444040444A51400000FF0103E080FF000008086B6B083612362436060F090F065D
:20056000000018180000001010003040FF0101001F01011E00191D1712003C3C3C3C00002C
:2005800000000000000000240027002A0000000000250028002B00000000002300260029FC
:2005A0000004040404040404040202020202020303030303030102040810204080010204F7
:2005C0000810200102040810200000000700020100000304060000000000000000005F0925
:2005E0000F1811241FBECFEFD8E0DEBFCDBF13E0A0E0B1E0E0E1FBE302C005900D92A634B0
:20060000B107D9F714E0A6E4B3E001C01D92AD31B107E1F715E0C2EED5E004C02297FE018D
:200620000E94D71CCE3DD107C9F70E9451160C94861D0C94000008952F923F924F925F9295
:200640007F928F929F92AF92BF92CF92DF92EF92FF920F931F93DF93CF93CDB7DEB7A09749
:200660000FB6F894DEBF0FBECDBF762E842E6AE972E080E090E00E94271DCE014F9698A393
:200680008F8F8E010F5F1F4F85E0282E312C412C512C0E94221D5B016C0186E493E00E94A6
:2006A0003A139C0140E050E0C601B5010E94A61CF801608311820E94221DA20191010E94F8
:2006C000A61CE62EE394F801E2828EEF93E060E071E00E9487188EEF93E0F80160814AE0BA
:2006E00050E00E9436198EEF93E064E071E00E9487188EEF93E0F80161814AE050E00E944C
:2007000036198EEF93E069E071E00E9487188EEF93E06E2D4AE050E00E943E190D5F1F4F07
:200720008F8D98A10817190709F0B3CFAA24B5E02B2E312C412C512C1FC08A2D90E0FC01A4
:20074000EE0FFF1FE80FF91F81E090E08C0F9D1FE80FF91F6081418186E493E070E050E038
:2007600028E630E0072D10E0E82CFF24E1E0CE2ED12C0E947411A3949A2D9A30F0F286E40B
:2007800093E00E94F61368EC70E080E090E00E94EF155E010894A11CB11CF50191806081B4
:2007A00086E493E070E0492D50E028E630E0072D10E0E82CFF24CC24DD240E947411F501DF
:2007C0000281090D018386E493E00E943E13202F30E082179307D8F40E94221D7B018C01E4
:2007E00086E493E00E943A139C0140E050E0C801B7010E94A61CF501608311820E94221D0E
:20080000A20191010E94A61C6F5FF501628383E090E0A80EB91EEF8DF8A1AE16BF0609F09F
:20082000BCCFAA248ACF1F9386E493E061E00E94271386E493E061E070E00E942D1386E4A0
:2008400093E060E070E040E050E00E94211310E01A3029F086E493E0612F0E94D0121F5FAD
:20086000183AB1F786E493E00E94F6131F910895FF920F931F93CF93DF93FF241CC086E487
:2008800093E00E943A138C0186E493E00E943E13B80176956795AC015695479586E493E088
:2008A0009E0101E010E00E94850986E493E00E94F61382E0F80ECF2DD0E086E493E00E947D
:2008C0003E13C817D907D8F2DF91CF911F910F91FF900895CF92DF92EF92FF920F931F93BA
:2008E000CF93DF93DD24CC24C39426C086E493E00E943A137C01002711270C1B1D0B000FF0
:20090000111F86E493E00E943E139701200F311F080F191FEC2CFF2481E0E822FF2486E43E
:2009200093E0BE01AE010E94340E86E493E00E94F613C39483E0D80ECD2DD0E086E493E043
:200940000E943E1396958795C817D90778F2DF91CF911F910F91FF90EF90DF90CF9008959B
:200960008F929F92AF92BF92CF92DF92EF92FF920F931F93CF93DF93C0E0D0E045C086E4C8
:2009800093E00E943A137C0186E493E00E943E138C0186E493E00E943A136C0186E493E005
:2009A0000E943E135C0186E493E00E943A134C0186E493E00E943E13B70176956795A80196
:2009C000569547954C1B5D0B9601369527952C1B3D0B8501169507950C0F1D1F7401F694B1
:2009E000E794EC0EFD1E6C01D694C794CC0EDD1E86E493E0E1E0AE2EB12C0E94B40F86E43A
:200A000093E00E94F613259686E493E00E943A138C0186E493E00E943E130817190728F479
:200A200086E493E00E943A1304C086E493E00E943E1396958795C817D90708F4A0CFDF9175
:200A4000CF911F910F91FF90EF90DF90CF90BF90AF909F908F9008956F927F928F929F922D
:200A6000AF92BF92CF92DF92EF92FF920F931F93CF93DF9386E493E00E943A13EC0186E4B5
:200A800093E00E943E13C817D90728F486E493E00E943A1304C086E493E00E943E13EC01C8
:200AA000D695C795992493948824839445C086E493E00E943A137C0186E493E00E943E13AA
:200AC0008C0186E493E00E943A136C0186E493E00E943E135C0186E493E00E943A133C011A
:200AE00086E493E00E943E13B70176956795A801569547954C1B5D0B9601369527952C1BC3
:200B00003D0B8501169507950C0F1D1F7301F694E794EC0EFD1E6C01D694C794CC0EDD1ED4
:200B200086E493E0A92CBB240E941710982486E493E00E94F61325971C161D060CF4B7CF80
:200B4000DF91CF911F910F91FF90EF90DF90CF90BF90AF909F908F907F906F900895BF92C1
:200B6000CF92DF92EF92FF920F931F93CF93DF93BB242DC086E493E00E943A137C0100272D
:200B800011270C1B1D0B000F111F86E493E00E943E136C0186E493E00E943E139701200FBB
:200BA000311F0C0D1D1D7C01F694E794F694E79486E493E0BE01AE01E1E0CE2ED12C0E9464
:200BC0008F0E86E493E00E94F61382E0B80ECB2DD0E086E493E00E943E1396958795029770
:200BE000C817D90738F2DF91CF911F910F91FF90EF90DF90CF90BF9008959F92AF92BF9261
:200C0000CF92DF92EF92FF920F931F93CF93DF93BB24AA24A394992493942DC086E493E036
:200C20000E943A137C01002711270C1B1D0B000F111F86E493E00E943E136C0186E493E041
:200C40000E943E139701200F311F0C0D1D1D7C01F694E794F694E79486E493E0BE01AE0165
:200C6000CA2CDD240E94430FA92486E493E00E94F61382E0B80ECB2DD0E086E493E00E94E5
:200C80003E13969587950297C817D90738F2DF91CF911F910F91FF90EF90DF90CF90BF90EF
:200CA000AF909F900895DF92EF92FF920F931F93CF93DF93DD2423C086E493E00E943A13CE
:200CC0007C01002711270C1B1D0B000F111F86E493E00E943E139701200F311F080F191F74
:200CE00086E493E0BE01AE01E1E0EE2EF12C0E94A60D86E493E00E94F61382E0D80ECD2D90
:200D0000D0E086E493E00E943E1396958795C817D90790F2DF91CF911F910F91FF90EF909D
:200D2000DF900895DF92EF92FF920F931F93DD241AC086E493E00E943E138C0101501040F7
:200D400086E493E060E070E040E050E02D2D30E0F1E0EF2EF12C0E94EA0C86E493E00E944A
:200D6000F61384E0D80E86E493E00E943A132D2D30E028173907E8F2DD241AC086E493E0D9
:200D80000E943A139C012150304086E493E060E070E040E050E00D2D10E0E1E0EE2EF12C05
:200DA0000E94EA0C86E493E00E94F61384E0D80E86E493E00E943E132D2D30E02817390710
:200DC000E8F26AEF70E080E090E00E94EF1586E493E00E94E414DD241AC086E493E00E9449
:200DE0003E13AC014150504086E493E060E070E02D2D30E000E010E0B1E0EB2EF12C0E94C4
:200E0000EA0C86E493E00E94F61384E0D80E86E493E00E943A132D2D30E028173907E8F27B
:200E200086E493E00E943E13D82EDA9422C086E493E00E943E138C0186E493E00E943A1363
:200E4000A801415050409C01215030400D2D112707FD109586E493E060E070E0A1E0EA2E29
:200E6000F12C0E94EA0C86E493E00E94F6138CEFD80ED7FEDCCF6AEF70E080E090E00E9439
:200E8000EF1586E493E00E94E41486E493E00E943A13D82EDA9422C086E493E00E943A13E9
:200EA0008C0186E493E00E943E13B80161507040AC01415050402D2D332727FD309586E4E6
:200EC00093E000E010E0F1E0EF2EF12C0E94EA0C86E493E00E94F6138CEFD80ED7FEDCCFC3
:200EE00086E493E00E943E13D82EDA9422C086E493E00E943A138C0186E493E00E943E13A3
:200F0000B80161507040AC01415050400D2D112707FD109586E493E020E030E0E1E0EE2E04
:200F2000F12C0E94EA0C86E493E00E94F6138CEFD80ED7FEDCCF6AEF70E080E090E00E9478
:200F4000EF1586E493E00E94E414DD241AC086E493E00E943A13BC016150704086E493E074
:200F600040E050E020E030E00D2D10E0B1E0EB2EF12C0E94EA0C86E493E00E94F61384E09C
:200F8000D80E86E493E00E943E132D2D30E028173907E8F2DD2420C086E493E00E943A132B
:200FA0008C0186E493E00E943E13B801615070408C010150104086E493E040E050E02D2D05
:200FC00030E0A1E0EA2EF12C0E94EA0C86E493E00E94F61384E0D80E86E493E00E943A1315
:200FE0002D2D30E028173907B8F26AEF70E080E090E00E94EF151F910F91FF90EF90DF9072
:201000000895AF92BF92CF92DF92EF92FF920F931F93CF93DF938EEF93E040E855E260E006
:2010200070E00E9491178DE061E00E94251589E061E00E94251589E060E00E944915C6E4B3
:20104000D3E0CE0168E20E943E14CE0169E10E94DE13CE010E94F61360ED77E080E090E036
:201060000E94EF15CE010E94E414CE016AE070E04AE050E021E030E00E944213CE010E9425
:20108000F61360ED77E080E090E00E94EF15CE010E94E4140E949206CE010E94F61360EDC3
:2010A00077E080E090E00E94EF15CE010E94E4140E945306CE010E94F61360ED77E080E081
:2010C00090E00E94EF15CE010E94E4140E946A04CE010E94F61360ED77E080E090E00E94F1
:2010E000EF15CE010E94E4140E943804CE010E94F61360ED77E080E090E00E94EF15CE0142
:201100000E94E414CE010E943A135C01CE010E943E13B50176956795AC0156954795CE0158
:201120002AE030E001E010E00E94B60CCE010E94F61360ED77E080E090E00E94EF15CE01FD
:201140000E94E4140E94AF0560ED77E080E090E00E94EF15CE010E94E4140E94FD0560ED2B
:2011600077E080E090E00E94EF15CE010E94E4140E94B00460ED77E080E090E00E94EF15C9
:20118000CE010E94E4140E942C0560ED77E080E090E00E94EF15CE010E94E4140E941304D7
:2011A000CE010E94F61360ED77E080E090E00E94EF15CE010E94E414CE0161E00E94271346
:2011C000CE0161E070E00E942D13CE0160E070E040E050E00E942113CE016FE071E00E9437
:2011E000A718CE0160E070E041E050E00E943313CE0148ED5FE069E470E422E030E00E9400
:20120000471ACE0162E00E942713CE0161E070E00E942D13CE016DE171E00E948718CE01C0
:201220004FEE5EEB6DEA7EED20E130E00E942319CE010E94F61360ED77E080E090E00E94E7
:20124000EF15CE010E94E41418E6A12E10E0B12ECE016EE170E040E150E0950100E110E05F
:20126000B0E1EB2EF12CA1E0CA2ED12C0E947411CE010E94F613CE0161E00E94391368EE3C
:2012800073E080E090E00E94EF15CE0160E00E94391368EE73E080E090E00E94EF15C501A3
:2012A00060E140E10E941C03DF91CF911F910F91FF90EF90DF90CF90BF90AF900895EF9263
:2012C0000F9386E493E067E046E025E004E033E0E32E0E9485130F91EF900895FC0175832A
:2012E0006483718760875783468353874287158A158614861786168681E0848B8FEF9FEF59
:20130000918B808B138A128A08952F923F924F925F926F927F928F929F92AF92BF92CF9215
:20132000DF92EF92FF920F931F93DF93CF93CDB7DEB728970FB6F894DEBF0FBECDBF2C01B6
:201340005B014A0151E0652E712C621A730A88279927821B930B880F991F9A838983690100
:20136000D201ED91FC91A901480D591D0480F581E02DC20198010995D201ED91FC91A40196
:201380004C195D090480F581E02DC201B50198010995D201ED91FC91B6016A0D7B1D0480A3
:2013A000F581E02DC201A40198010995D201ED91FC91B5016C197D090480F581E02DC201A2
:2013C000A40198010995EE24FF24E1E0F0E0FE83ED8358864F829EC077FC0AC00894C108CB
:2013E000D10889819A8102969A838983680E791E0894E11CF11CAD81BE811296BE83AD83F5
:201400006A0E7B1E17012A0C3B1C2601480C591CAF81B885ED91FC9111970480F581E02DFF
:20142000CD01B101A20198010995F501EE19FF09FC83EB83AF81B885ED91FC9111970480BC
:20144000F581E02DCD016B817C81A2019801099524014C185D08AF81B885ED91FC9111976A
:201460000480F581E02DCD01B101A20198010995AF81B885ED91FC9111970480F581E02DE4
:20148000CD016B817C81A2019801099516012A0C3B1C2701480C591CAF81B885ED91FC91AE
:2014A00011970480F581E02DCD01B101A20198010995F501EC19FD09FC83EB83AF81B885C8
:2014C000ED91FC9111970480F581E02DCD016B817C81A2019801099524014E185F08AF819F
:2014E000B885ED91FC9111970480F581E02DCD01B101A20198010995AF81B885ED91FC9123
:2015000011970480F581E02DCD016B817C81A20198010995EC14FD040CF45ECF28960FB6DA
:20152000F894DEBF0FBECDBFCF91DF911F910F91FF90EF90DF90CF90BF90AF909F908F9051
:201540007F906F905F904F903F902F9008952F923F924F925F926F927F928F929F92AF927B
:20156000BF92CF92DF92EF92FF920F931F93DF93CF93CDB7DEB762970FB6F894DEBF0FBE41
:20158000CDBF9A8B898B4B015A01670171E0672E712C621A730A44245524421A530A440C11
:2015A000551C79011A01089421083108C40101979E838D83DA011196BA83A983F4013196F2
:2015C000FC83EB831A86198681E090E098878F8310E0D801A470B070BC87AB87F801E27020
:2015E000F070FE87ED87C80188709070988B8F8701701070C80182012C01B4C077FC07C080
:201600000894E108F1080E5F1F4F600E711EA985BA851196BA87A987EF81F8853296F887BB
:20162000EF836E0E7F1E8B859C85009701F1A989BA89ED91FC911197A7014A0D5B1D048042
:20164000F581E02DCD016B817C8196010995A989BA89ED91FC911197B701680D791D0480AC
:20166000F581E02DCD0149815A8196010995ED85FE853097F9F0A989BA89ED91FC91119772
:20168000A5014E195F090480F581E02DCD016B817C8196010995A989BA89ED91FC911197BA
:2016A000B701680D791D0480F581E02DCD01A10196010995EF85F889309701F1A989BA8998
:2016C000ED91FC911197B4016E197F090480F581E02DCD0149815A8196010995A989BA896F
:2016E000ED91FC911197A7014A0D5B1D0480F581E02DCD016D817E8196010995411451041F
:20170000F9F0A989BA89ED91FC911197B4016E197F090480F581E02DCD01A1019601099548
:20172000A989BA89ED91FC911197A5014E195F090480F581E02DCD016D817E819601099515
:20174000089421083108ED81FE813197FE83ED8389819A8101969A838983AB81BC811196F0
:20176000BC83AB83E985FA85EE15FF050CF446CF62960FB6F894DEBF0FBECDBFCF91DF91E4
:201780001F910F91FF90EF90DF90CF90BF90AF909F908F907F906F905F904F903F902F90D7
:2017A00008952F923F924F925F926F927F928F929F92AF92BF92CF92DF92EF92FF920F93AC
:2017C0001F93DF93CF93CDB7DEB72E970FB6F894DEBF0FBECDBF5C013B015E834D83C7014C
:2017E000760141E0C42ED12CC21AD30A44245524421A530A440C551CA9012D803E8008949D
:20180000210831089C012D5F3F4F3A83298388249924A1E0B0E0BC83AB8310E0F801E17025
:20182000F070FA87E9879C012F5F3F4F38872F83C801827090709C878B875E874D8777C04D
:20184000D7FC0BC0AD85BE851197BE87AD87E2E0F0E04E0E5F1EC40CD51C0894811C911C42
:201860002B813C812E5F3F4F3C832B83C20ED31E89859A85009739F1D501ED91FC91B40132
:20188000660D771D4D815E812D853E85421B530B220F331F8F819885280F391F0284F38527
:2018A000E02DC50187010995D501ED91FC916D857E85660D771D0284F385E02DC501A101DF
:2018C00029813A810995EB85FC85309741F1D501ED91FC91B301681979094D815E812D8524
:2018E0003E85421B530B220F331F8F819885280F391F0284F385E02DC50187010995D5015E
:20190000ED91FC91B3012D853E85621B730B0284F385E02DC501A10129813A810995089486
:201920002108310889819A8102969A838983AD85BE858A169B060CF483CF2E960FB6F89442
:20194000DEBF0FBECDBFCF91DF911F910F91FF90EF90DF90CF90BF90AF909F908F907F90AA
:201960006F905F904F903F902F9008958F929F92AF92BF92CF92DF92EF92FF920F931F9353
:20198000CF93DF93EC015B014A0179016801E881F981421B530B220F331F2F5F3F4F028439
:2019A000F385E02DB5010995CE01B501A401970103E0EE24FF240E94D10BDF91CF911F9176
:2019C0000F91FF90EF90DF90CF90BF90AF909F908F9008952F923F924F925F926F927F929C
:2019E0008F929F92AF92BF92CF92DF92EF92FF920F931F93DF93CF9300D000D0CDB7DEB73E
:201A00002C017C836B836A01590117019801241B350B37FF03C0309521953F4FC501EB8084
:201A2000FC808E199F0997FF03C0909581959F4F71E0672E712C8217930714F0662477247A
:201A40006114710469F03A2D2B2D5801C901092F182F3B812C81DC82CB82C901C92ED82E07
:201A60002B813C81A216B3066CF43C2D2D2D6801C901092F182F3B812C81BC82AB82C90119
:201A8000A92EB82EA5018B819C81481B590B5A83498348018C189D0897FE04C09094819426
:201AA0009108939489819A8162E070E00E94711C7B01C016D1061CF401E010E02BC00FEF8D
:201AC0001FEF28C0D201ED91FC9111976114710441F00480F581E02DC201B6014B815C8145
:201AE00007C00480F581E02DC2016B817C81A60191010995E818F908F7FE06C0C00ED11E1C
:201B0000E981FA81EE0EFF1E2B813C812F5F3F4F3C832B834B815C81A416B5069CF60F9086
:201B20000F900F900F90CF91DF911F910F91FF90EF90DF90CF90BF90AF909F908F907F90E1
:201B40006F905F904F903F902F9008956F927F928F929F92AF92BF92CF92DF92EF92FF92B3
:201B60000F931F93CF93DF93EC016B015A0139014801E881F9810484F585E02D87010995EE
:201B8000E881F981A50141505040480D591D0484F585E02DCE01B60193010995E881F98126
:201BA0000284F385E02DCE01B601A50194010995E881F981B60161507040660D771D028433
:201BC000F385E02DCE01A50194010995DF91CF911F910F91FF90EF90DF90CF90BF90AF904E
:201BE0009F908F907F906F900895EF92FF920F931F93CF93DF93B62FA72F7801EC01E88128
:201C0000F9818A0101501040020F131F0084F185E02D2B2F3A2F0995DF91CF911F910F9153
:201C2000FF90EF900895EF92FF920F931F93CF93DF93B42FA52FA9017801EC01E881F98115
:201C40009B0121503040240F351F0084F185E02D4B2F5A2F0B2F1A2F0995DF91CF911F91D5
:201C60000F91FF90EF9008954F925F926F927F928F929F92AF92BF92CF92DF92EF92FF926D
:201C80000F931F93CF93DF935C013A0169014801462EE2012E01572EE201C40CD51C0DC055
:201CA000D501ED91FC910284F385E02DC501BE01A3019401870109952196CC15DD0580F367
:201CC000DF91CF911F910F91FF90EF90DF90CF90BF90AF909F908F907F906F905F904F9050
:201CE0000895EF92FF920F931F937B01DC01ED91FC91119718962D913C9119971A960D919E
:201D00001C911B970088F189E02D60E070E040E050E009951F910F91FF90EF9008952F921B
:201D20003F924F925F926F927F928F929F92AF92BF92CF92DF92EF92FF920F931F93DF9360
:201D4000CF93CDB7DEB728970FB6F894DEBF0FBECDBF5C0178876F833A013C832B831E836B
:201D60000D8347011B012E0C3F1C9701220F331F3A832983EB80FC80E21AF30ADC01ED911B
:201D8000FC910484F585E02DB1019701860109952301089441085108ED81FE814E0E5F1E10
:201DA000D501ED91FC910484F585E02DC501B101A20197010995680C791CED80FE80E98184
:201DC000FA81EE1AFF0AD501ED91FC910284F385E02DC5016F817885A30197010995EF818E
:201DE000F88531972B813C81E20FF31FFA83E983D501ED91FC910284F385E02DC5016981AD
:201E00007A81A30197010995C501B101A301940101E076010E94A70AE981FA81E819F909A9
:201E2000FA83E983C501BF01A301940102E00E94A70A48185908C50169817A81A201940121
:201E400004E00E94A70AC501B101A201940108E00E94A70A28960FB6F894DEBF0FBECDBF5B
:201E6000CF91DF911F910F91FF90EF90DF90CF90BF90AF909F908F907F906F905F904F90AE
:201E80003F902F9008952F923F924F925F926F927F928F929F92AF92BF92CF92DF92EF926A
:201EA000FF920F931F93DF93CF9300D000D000D0CDB7DEB73C011B012A013C832B83580196
:201EC000FE82ED824601C701860F971F9A8389836701CC0CDD1CD301ED91FC912C193D09ED
:201EE0000088F189E02DC30169817A8174010995ED81FE814E0E5F1E0894A108B108AC188F
:201F0000BD08B101615070408B819C81680F791F6E1B7F0BC301A2019F0101E075016401DB
:201F20000E94D10BC30169817A81A2012D813E8102E00E94D10B26960FB6F894DEBF0FBE93
:201F4000CDBFCF91DF911F910F91FF90EF90DF90CF90BF90AF909F908F907F906F905F9020
:201F60004F903F902F9008952F923F924F925F926F927F928F929F92AF92BF92CF92DF922B
:201F8000EF92FF920F931F93DF93CF9300D000D0CDB7DEB79C838B8369837A83542E452E43
:201FA000322E232E902E812E7E2C6F2CDC01ED91FC910084F185E02D75010995AB81BC8152
:201FC000ED91FC9111970084F185E02DCD01632D722D492D582D272D362D86010995AB8147
:201FE000BC81ED91FC9111970084F185E02DCD01672D762DA60129813A81052D142D0995C8
:202000000F900F900F900F90CF91DF911F910F91FF90EF90DF90CF90BF90AF909F908F906C
:202020007F906F905F904F903F902F9008952F923F924F925F926F927F928F929F92AF9290
:20204000BF92CF92DF92EF92FF920F931F93DF93CF93CDB7DEB766970FB6F894DEBF0FBE52
:20206000CDBF9A8389832B013A014901BE82AD820417150760F4342F272D3801C901092F0E
:20208000182F362F252D2401C901892E982EC016D10660F4302F212F8601C901C92ED82ED8
:2020A000382D292D4701C901E92EF82E0615170560F4362D272D3801C901092F182F342DF1
:2020C000252D2401C901892E982E6C147D0449F58414950410F4B40108C04814590420F484
:2020E000B201482C592C01C0B201E616F70610F4B70104C04E145F0408F42701A981BA81F9
:20210000ED91FC91119792012F5F3F4F261B370B0484F585E02DCD01A3010D811E8109958E
:20212000CAC0F401E419F509FE87ED87180126183708388A2F865701A418B508BC82AB82E3
:202140009601261937093A872987A701481959095C874B87C601801B910B9A8B898B0C1580
:202160001D0519F418870F8304C0D8011197B887AF837301AA24BB24222433247C8A6B8A90
:2021800034014801DE8ACD8A36C0C1016F8578890E94711C8B01040D151DC50169857A85A4
:2021A0000E94711C9B01240D351DED85FE852E0E3F1ECB80DC80AC0CBD1C2017310734F474
:2021C000502F412F8901CA01292F382FA981BA81ED91FC9111972F5F3F4F201B310B0484C9
:2021E000F585E02DCD01B801A7010D811E8109950894E11CF11CEF81F885EE15FF052CF6A2
:20220000840143016B887C88CD88DE88C7019701201B310B2B843C84229D5001239DB00C71
:20222000329DB00C1124861997092B813C81829FA001839F500D929F500D112434014601B6
:202240006A0136C0C50169897A890E94711C8B01060D171DC60169857A850E94711C9B01E1
:20226000240D351D4B855C85A40EB51E8B819C81C80ED91E2017310734F4502F412F89019F
:20228000CA01292F382FA981BA81ED91FC9111972F5F3F4F201B310B0484F585E02DCD012C
:2022A000B801A7010D811E8109950894E11CF11C8E149F0438F666960FB6F894DEBF0FBE22
:2022C000CDBFCF91DF911F910F91FF90EF90DF90CF90BF90AF909F908F907F906F905F909D
:2022E0004F903F902F9008952F923F924F925F926F927F928F929F92AF92BF92CF92DF92A8
:20230000EF92FF920F931F93DF93CF93CDB7DEB72A970FB6F894DEBF0FBECDBF4C017C8316
:202320006B835E834D8338872F8358011701360140E050E0B1E04B2E512C23C0F80184911D
:2023400090E029813A8182239323009771F0D401ED91FC916B817C816E0D7F1D0480F5817B
:20236000E02DC401A601930109950894E11CF11C0F5F1F4FEA14FB0408F349855A854F5FDD
:202380005F4F4215530528F5CA0187709070F20102C0EE0FFF1F8A95E2F7FA83E983CA0185
:2023A000A3E096958795AA95E1F78A9D80018B9D100D9A9D100D11242F813885020F131F16
:2023C000EE24FF24CD80DE80C40ED51E5A874987D1CF2A960FB6F894DEBF0FBECDBFCF91A0
:2023E000DF911F910F91FF90EF90DF90CF90BF90AF909F908F907F906F905F904F903F90BA
:202400002F9008952F923F924F925F926F927F928F929F92AF92BF92CF92DF92EF92FF9222
:202420000F931F93DF93CF93CDB7DEB762970FB6F894DEBF0FBECDBF5C014B011A011987B7
:2024400008872701CA8685E02802A00111245D834C83DD243B011982DE86CD86C101089672
:20246000988B8F8795019981953031F0EC81FD81E857FF4FE49101C0E0E051013F822E825C
:202480003B822A823A8B298BAE2FB0E0BC87AB87E0FF1EC0A989BA89ED91FC91BA85B1301B
:2024A00051F40480F581E02D89899A89B401A5012885398521C00088F189E02D89899A89B0
:2024C000B3014A815B8196018601E884F98421C0E885F9854E165F06E9F0A989BA89ED9139
:2024E000FC91BA85B13051F40480F581E02D89899A89B401A501920109950CC00088F18954
:20250000E02D89899A89B3014E815F819601860172010995EA81FB812D853E85E20FF31F88
:20252000FB83EA834E815F81420F531F5F834E830894A11CB11C8F859889A816B90629F09A
:20254000EB85FC85F595E7959FCF29893A8999819F5F99836C0C7D1C0894811C911CAC8149
:20256000BD811196BD83AC83963009F07CCF62960FB6F894DEBF0FBECDBFCF91DF911F913E
:202580000F91FF90EF90DF90CF90BF90AF909F908F907F906F905F904F903F902F900895DC
:2025A000CF92EF92FF920F931F93CF93DF93EC01262F6A3019F42C8930E02CC06D30B9F19F
:2025C0006C857D854E855F8508891989EA88FB88CC880E9402122C8930E0C901880F991F41
:2025E000820F931F880F991F4C855D85840F951F9D878C876AEF7FEF269FA001279F500DC8
:20260000369F500D112468857985460F571F4817590768F403E0220F331F0A95E1F78E8592
:202620009F85820F931F9F878E871D861C8681E090E0DF91CF911F910F91FF90EF90CF9055
:202640000895FC0175876487578746870895662309F461E0FC01648B0895FC01718B608B7D
:20266000738B628B0895FC01718B608B538B428B08950895FC01808591850895FC01828550
:20268000938508956435710508F03EC040335105D8F5CA01E3E096958795EA95E1F7477007
:2026A000507021153105C1F024E530E0829FF001839FF00D929FF00D1124E60FF71FEA5D3E
:2026C000FE4F81E090E002C0880F991F4A95E2F72081282B2083089524E530E0829FF001B4
:2026E000839FF00D929FF00D1124E60FF71FEA5DFE4F81E090E002C0880F991F4A95E2F71F
:2027000080959081892380830895EF920F93FC011382128282E293E091838083468B678B4D
:20272000208FE18E028FCF0164E570E040E350E00E946E090F91EF900895FC0188E090E084
:2027400030E8A58DB68D4C9124A1209524232C93432F4623A38DB48D23A1442321F04C912A
:20276000422B4C9304C04C91209524232C93A58DB68D2C9144A1242B2C933695019709F729
:2027800008951F93CF93DF93EC01162F888D60E00E9449158A8D18161CF460E00E944915FA
:2027A000CE01612F0E949D138A8D18161CF461E00E944915DF91CF911F9108951F93CF93A1
:2027C000DF93EC01162F67FD1FE7CE0161E20E94C113612F6068CE010E94C113CE0160E2B5
:2027E0000E94C113DF91CF911F910895CF92DF92EF92FF920F931F93CF93DF93EC0100E06D
:2028000010E0DD246D2D6064CE010E94C113CE0160E80E94C113888D61E00E9449158A8D2A
:2028200018161CF460E00E944915A6E2EA2EA1E0FA2EE00EF11EF4E5CF2EF70161917F0194
:20284000CE010E949D13CA94C1F78A8D18161CF461E00E944915D3940C5A1F4FFD2DF63020
:2028600089F6CE0160E40E94C113DF91CF911F910F91FF90EF90DF90CF9008951F93CF93A3
:20288000DF93EC01162F8E8961E00E9425158F8961E00E942515888D61E00E942515898DE3
:2028A00018161CF461E00E9425158A8D18161CF461E00E942515898D181684F460E00E94AD
:2028C00049158FEF99E6A8E181509040A040E1F700C00000898D61E00E9449158F899927CC
:2028E00087FD9095FC01EF55FA4FE491F0E0EE0FFF1FE357FA4F259134912D8F3E8F8B54DF
:202900009A4FFC0184918CA38E89992787FD9095FC01EF55FA4FE491F0E0EE0FFF1FE357E9
:20292000FA4F259134912B8F3C8F8B549A4FFC0184918BA38A8D992787FD9095FC01EF5585
:20294000FA4FE491F0E0EE0FFF1FE357FA4F259134912F8F38A38B549A4FFC0184918DA32D
:20296000888D992787FD9095FC01EF55FA4FE491F0E0EE0FFF1FE357FA4F2591349129A325
:202980003AA38B549A4FFC0184918EA3CE0161E20E94C113CE0164E10E94C11317FD1FE723
:2029A000612F6068CE010E94C113CE0160E20E94C113CE016CE00E94C113CE010E94F613E8
:2029C000DF91CF911F910895CF93DF93FC0188EF91E0A6E2B1E0ED019C01199221503040F1
:2029E000E1F71586148617861686DF91CF910895833071F0843028F48130A1F0823021F536
:202A000014C08630B1F08730D1F08430E9F404C0809180008F7703C0809180008F7D8093B4
:202A20008000089584B58F7702C084B58F7D84BD08958091B0008F778093B000089580911D
:202A4000B0008F7D8093B000089590E0FC01EB54FA4F2491FC01EF55FA4FE491EE23C1F0EF
:202A6000F0E0EE0FFF1FED57FA4F85919491DC01662341F49FB7F8948C91209582238C9390
:202A80009FBF08959FB7F8948C91822B8C939FBF08950F931F93DF93CF930F92CDB7DEB793
:202AA000282F30E0F901E753FA4F8491F901EB54FA4F14912F553A4FF90104910023D9F06E
:202AC000882321F069830E94F8146981E02FF0E0EE0FFF1FE357FA4F85919491DC019FB7CB
:202AE000F894662321F48C911095812302C08C91812B8C939FBF0F90CF91DF911F910F917F
:202B000008951F920F920FB60F9211242F933F938F939F93AF93BF93809171039091720394
:202B2000A0917303B0917403309175030196A11DB11D232F2D5F2D3720F02D570196A11DAF
:202B4000B11D209375038093710390937203A0937303B093740380916D0390916E03A091B6
:202B60006F03B09170030196A11DB11D80936D0390936E03A0936F03B0937003BF91AF910A
:202B80009F918F913F912F910F900FBE0F901F9018959FB7F89420916D0330916E034091E8
:202BA0006F035091700386B5A89B06C08F3F21F02F5F3F4F4F4F5F4F9FBF542F432F322F10
:202BC0002227280F311D411D511D82E0220F331F441F551F8A95D1F7B901CA010895EF9215
:202BE000FF920F931F93CF93DF937B018C010E94C915EB010FC00E94C9156C1B7D0B83E0E6
:202C0000683E780738F00894E108F10801091109C851DC4FE114F1040105110561F7DF91B3
:202C2000CF911F910F91FF90EF900895789484B5826084BD84B5816084BD85B5826085BD18
:202C400085B5816085BDEEE6F0E0808181608083E1E8F0E01082808182608083808181609B
:202C60008083E0E8F0E0808181608083E1EBF0E0808184608083E0EBF0E0808181608083D0
:202C8000EAE7F0E08081846080838081826080838081816080838081806880831092C10091
:202CA0000895CF93DF930E9416160E940108C1E4D7E10E941B032097E1F30E944117F9CFC0
:202CC000FC0184859585FC01E05CFF4F208131818E5B9F4FFC0180819181281B390B2F73EA
:202CE0003070C9010895FC0184859585FC01E05CFF4F40815181FC01EE5BFF4F20813181AC
:202D00004217530741F00190F081E02DE80FF91F208130E002C02FEF3FEFC9010895FC018E
:202D200084859585FC01E05CFF4F40815181FC01EE5BFF4F208131814217530771F0A0813A
:202D4000B181A80FB91F2C918081918101968F7390709183808330E002C02FEF3FEFC9014A
:202D60000895DC011E968D919C911F97FC01E05CFF4F8E5B9F4F40815181DC012D913C91CB
:202D8000119742175307B9F708951F93FC01162F26853785D901A05CBF4F8D919C9101966A
:202DA00060E470E00E94711CD901AE5BBF4F4D915C91119784179507D1F3D901A05CBF4F0D
:202DC0000D90BC91A02DA20FB31F1C93A685B785A05CBF4F11969C938E93A689B7892C9176
:202DE00081E090E0058C02C0880F991F0A94E2F7282B2C9381E090E01F910895FB01E05C81
:202E0000FF4F208131812F5F3F4F2F733070DB01AE5BBF4F4D915C9111972417350739F0AD
:202E2000A081B181A60FB71F8C9331832083089508951F920F920FB60F9211242F933F9383
:202E40004F935F936F937F938F939F93AF93BF93EF93FF938091C60066E773E00E94FE1661
:202E6000FF91EF91BF91AF919F918F917F916F915F914F913F912F910F900FBE0F901F9038
:202E800018958EEF93E00E946016009711F00E94181708951F920F920FB60F9211242F93C8
:202EA0003F935F936F937F938F939F93AF93BF93EF93FF932091FA033091FB038091FC03C1
:202EC0009091FD032817390731F48091C1008F7D8093C10016C0E091FC03F091FD03E6547A
:202EE000FC4F20818091FC039091FD03019660E470E00E94711C9093FD038093FC03209373
:202F0000C600FF91EF91BF91AF919F918F917F916F915F913F912F910F900FBE0F901F90B1
:202F20001895DF92EF92FF920F931F93CF93DF93EC017A018B01DD24D394403081EE58079F
:202F400080E0680780E0780749F4DD24EC89FD89108260E874E88EE190E00FC0EC89FD89AB
:202F600081E090E00E8C02C0880F991F0A94E2F7808360E079E08DE390E0A80197010E94FF
:202F8000841C2150304040405040569547953795279580E12030380710F0DD20B1F6E8894C
:202FA000F9893083EA89FB892083EE89FF89408181E090E09C010A8C02C0220F331F0A949B
:202FC000E2F7422B4083EE89FF8940819C010B8C02C0220F331F0A94E2F7422B4083EE8991
:202FE000FF8940819C010C8C02C0220F331F0A94E2F7422B4083EE89FF8920810D8C02C06C
:20300000880F991F0A94E2F7809582238083DF91CF911F910F91FF90EF90DF900895109251
:2030200001041092000488EE93E0A0E0B0E08093020490930304A0930404B0930504E0E062
:20304000F4E08AE393E09293829386E793E0958784878AEB93E09787868785EC90E0918B6B
:20306000808B84EC90E0938B828B80EC90E0958B848B81EC90E0978B868B86EC90E0918F1D
:20308000808F84E0828F83E0838F87E0848F85E0858F81E0868F0895CF92DF92EF92FF924D
:2030A0000F931F93CF93DF936C017B018A01C0E0D0E00FC0D7016D917D01D601ED91FC911F
:2030C0000190F081E02DC6010995C80FD91F015010400115110571F7CE01DF91CF911F9129
:2030E0000F91FF90EF90DF90CF900895DB010D900020E9F7AD0141505040461B570BDC01CF
:20310000ED91FC910280F381E02D099508950E9476180895DC01ED91FC910190F081E02DA2
:20312000099508950F931F93CF93DF93EC016DE00E948A188C01CE016AE00E948A18080FAD
:20314000191FC801DF91CF911F910F9108950F931F93CF93DF93EC010E9476188C01CE0110
:203160000E949218080F191FC801DF91CF911F910F9108958F929F92AF92BF92CF92DF9278
:20318000EF92FF920F931F93DF93CF93CDB7DEB7A1970FB6F894DEBF0FBECDBF6C01042FBD
:2031A000E52FCB01122F19A2223008F41AE021E2E22EF12CEC0EFD1E812E9924AA24BB248D
:2031C00003C0022FE32FCA01602F7E2FA50194010E94841C129F802D1124081B0894E1082A
:2031E000F1080A3014F4005D01C0095CF7010083211531054105510521F7C601B7010E9455
:203200007618A1960FB6F894DEBF0FBECDBFCF91DF911F910F91FF90EF90DF90CF90BF9057
:20322000AF909F908F9008952115310549F4DC01ED91FC910190F081E02D642F09950895F6
:203240000E94BA1808950F931F93CF93DF93EC010E9414198C01CE010E949218080F191F82
:20326000C801DF91CF911F910F9108959A01462F50E060E070E00E94141908950F931F9338
:20328000CF93DF93EC019A01462F50E060E070E00E9414198C01CE010E949218080F191FD7
:2032A000C801DF91CF911F910F910895CF92DF92EF92FF920F931F93CF93DF93EC017A0114
:2032C0008B012115310541F4E881F9810190F081E02D642F09951AC02A303105A9F477FF21
:2032E00012C06DE20E948A186C0144275527BA014E195F09600B710BCE012AE00E94BA1857
:20330000C80ED91E04C02AE00E94BA186C01C601DF91CF911F910F91FF90EF90DF90CF906E
:2033200008956F927F929F92AF92BF92CF92DF92EF92FF920F931F93CF93DF933C017A0157
:203340008B01C22ECB01BA0120E030E0A9010E94BF1A87FF0AC0C3016DE20E948A18EC01A1
:2033600017FB109517F9109502C0C0E0D0E0DD2450E040E030E02FE311C0DA01F9016B2F1C
:20338000742F8F2F922F20E030E040E251E40E94C31A562F472F382F292FD394DC1468F3B9
:2033A000C801B701DA01F9012B2F342F4F2F5E2F0E945B1A5B01F82E992E7B2D0E94301BFA
:2033C000162FD72EE82E092F0E945C1B9B01AC016A2D7B2D8F2D992D0E945A1A962EA72E83
:2033E000B82EF92EC301412F5D2D6E2D702F2AE030E00E941419C80FD91FCC20B9F1C301B6
:2034000060E271E00E947618C80FD91F2FC0692D7A2D8B2D9F2D20E030E040E251E40E9461
:203420000E1CD62EB72EA82E992E0E942B1B7B010027F7FC0095102FC301B801A7012AE05B
:2034400030E00E945619C80FD91FC801B7010E945E1B9B01AC016D2D7B2D8A2D992D0E9436
:203460005A1A962EA72EB82EF92ECA94CC2079F6CE01DF91CF911F910F91FF90EF90DF900D
:20348000CF90BF90AF909F907F906F9008950F931F93CF93DF93EC010E9491198C01CE01A8
:2034A0000E949218080F191FC801DF91CF911F910F9108955058BB27AA270ED075C166D145
:2034C00030F06BD120F031F49F3F11F41EF45BC10EF4E095E7FB51C1E92F77D180F3BA173B
:2034E000620773078407950718F071F49EF58FC10EF4E0950B2EBA2FA02D0B01B9019001B5
:203500000C01CA01A0011124FF27591B99F0593F50F4503E68F11A16F040A22F232F342F31
:203520004427585FF3CF469537952795A795F0405395C9F77EF41F16BA0B620B730B840B4A
:20354000BAF09150A1F0FF0FBB1F661F771F881FC2F70EC0BA0F621F731F841F48F4879547
:2035600077956795B795F7959E3F08F0B3CF9395880F08F09927EE0F979587950895D9D012
:2035800008F481E008950CD00FC107D140F0FED030F021F45F3F19F0F0C0511139C1F3C014
:2035A00014D198F39923C9F35523B1F3951B550BBB27AA2762177307840738F09F5F5F4FF2
:2035C000220F331F441FAA1FA9F333D00E2E3AF0E0E830D091505040E695001CCAF729D0AD
:2035E000FE2F27D0660F771F881FBB1F261737074807AB07B0E809F0BB0B802DBF01FF27B5
:2036000093585F4F2AF09E3F510568F0B6C000C15F3FECF3983EDCF3869577956795B795A4
:20362000F7959F5FC9F7880F911D9695879597F90895E1E0660F771F881FBB1F6217730747
:203640008407BA0720F0621B730B840BBA0BEE1F88F7E095089504D06894B111D9C0089559
:20366000BCD088F09F5790F0B92F9927B751A0F0D1F0660F771F881F991F1AF0BA95C9F74C
:2036800012C0B13081F0C3D0B1E00895C0C0672F782F8827B85F39F0B93FCCF386957795BB
:2036A0006795B395D9F73EF490958095709561957F4F8F4F9F4F0895E89409C097FB3EF44F
:2036C00090958095709561957F4F8F4F9F4F9923A9F0F92F96E9BB279395F6958795779562
:2036E0006795B795F111F8CFFAF4BB0F11F460FF1BC06F5F7F4F8F4F9F4F16C0882311F0D8
:2037000096E911C0772321F09EE8872F762F05C0662371F096E8862F70E060E02AF09A9512
:20372000660F771F881FDAF7880F9695879597F90895990F0008550FAA0BE0E8FEEF161651
:203740001706E807F907C0F012161306E407F50798F0621B730B840B950B39F40A2661F025
:20376000232B242B252B21F408950A2609F4A140A6958FEF811D811D089597F99F6780E80C
:2037800070E060E008959FEF80EC089500240A941616170618060906089500240A941216A6
:2037A0001306140605060895092E0394000C11F4882352F0BB0F40F4BF2B11F460FF04C052
:2037C0006F5F7F4F8F4F9F4F089557FD9058440F551F59F05F3F71F04795880F97FB991FDC
:2037E00061F09F3F79F087950895121613061406551FF2CF4695F1DF08C01616170618060E
:20380000991FF1CF86957105610508940895E894BB2766277727CB0197F908950BD0C4CF10
:20382000B5DF28F0BADF18F0952309F0A6CFABCF1124EECFCADFA0F3959FD1F3950F50E0A1
:20384000551F629FF001729FBB27F00DB11D639FAA27F00DB11DAA1F649F6627B00DA11DD2
:20386000661F829F2227B00DA11D621F739FB00DA11D621F839FA00D611D221F749F332754
:20388000A00D611D231F849F600D211D822F762F6A2F11249F5750408AF0E1F088234AF013
:2038A000EE0FFF1FBB1F661F771F881F91505040A9F79E3F510570F060CFAACF5F3FECF388
:2038C000983EDCF3869577956795B795F795E7959F5FC1F7FE2B880F911D9695879597F9D1
:2038E000089597FB092E07260AD077FD04D049D006D000201AF4709561957F4F0895F6F7A3
:20390000909581959F4F0895A1E21A2EAA1BBB1BFD010DC0AA1FBB1FEE1FFF1FA217B3076F
:20392000E407F50720F0A21BB30BE40BF50B661F771F881F991F1A9469F76095709580958F
:2039400090959B01AC01BD01CF01089597FB092E05260ED057FD04D0D7DF0AD0001C38F4FC
:2039600050954095309521953F4F4F4F5F4F0895F6F790958095709561957F4F8F4F9F4FDF
:203980000895AA1BBB1B51E107C0AA1FBB1FA617B70710F0A61BB70B881F991F5A95A9F767
:2039A00080959095BC01CD010895EE0FFF1F0590F491E02D0994A0E0B0E0E1EEFCE10C946A
:2039C000571DEC01688179818A819B81611571058105910521F464E279ED8BE597E02DE1BE
:2039E00033EF41E050E00E94A61C79018A0127EA31E440E050E00E94301D5B016C01C801F4
:203A0000B7012CEE34EF4FEF5FEF0E94301D9B01AC012A0D3B1D4C1D5D1D57FF04C02150F0
:203A2000304040405048288339834A835B835F77B901CA01CDB7DEB7EAE00C94731D0E94DC
:203A4000DB1C089582E291E00E94DB1C08956093220170932301809324019093250108956C
:203A6000629FD001739FF001829FE00DF11D649FE00DF11D929FF00D839FF00D749FF00DFA
:203A8000659FF00D9927729FB00DE11DF91F639FB00DE11DF91FBD01CF01112408952F928B
:203AA0003F924F925F926F927F928F929F92AF92BF92CF92DF92EF92FF920F931F93CF93D3
:203AC000DF93CDB7DEB7CA1BDB0B0FB6F894DEBF0FBECDBF09942A88398848885F846E8494
:203AE0007D848C849B84AA84B984C884DF80EE80FD800C811B81AA81B981CE0FD11D0FB677
:203B0000F894DEBF0FBECDBFED010895F894FFCF783A200020793A20002064793A200048DA
:203B2000656C6C6F2C20776F726C6421003078002E0001000000000000000000000000006D
:203B400000000000000000000000000000000000000000000000000000000000C0E0F0F8DD
:203B6000FCFCFEFFFCE0000000000000000000000000000000000000000000000000000074
:203B8000000000000000000000000000000000000000000000000000000000F8F8F8F8F84D
:203BA000F8F8F8F8F8F8F8F0F0E0E0C080C0FCFFFFFFFF7F3F7FFFFFFFFFFF00000000006D
:203BC0000000000000000000000000000000000000000000000000000000000000000000E5
:203BE000000000000000000000000000000000000F1F3F7FFFFFFFFFFFFFFFFFE7C7C787E5
:203C00008F9F9FFFFFFFC1C0E0FCFFFFFFFFFFFCFCFCFCFEFEFEFCFCF8F8F0E0C0C0000060
:203C2000000000000000000000000000000000000000000000000000000000000000000084
:203C40000000000000000080C0E0F1FBFFFFFFFFFF7F1F0F0F87E7FFFFFF1F1F3FF9F8F8D0
:203C6000F8F8F8F8FDFFFFFFFFFFFFFFFFFF7F3F0F0701000000000000000000000000009B
:203C800000000000000000000000000000000000000000000000000000F0FEFFFFFFFFFF3B
:203CA000FFFFFFFFFFFE7E3F3F0F1FFFFFFFFCF0E0F1FFFFFFFFFFFCF00101010101010139
:203CC0000100000000000000000000000000000000000000000000000000000000000000E3
:203CE0000000000000000000000000000003030303030303030101010100000000000000A8
:203D0000030F1F3F7F7FFFFFFFFF7F7F1F0300000000000000000000000000000000000019
:203D2000000000000000000000000000000000000000D0124C1842133913EA0CF50D130E83
:203D4000A60D340E710E00000000C5164C1860168F167316B1160000000000000000000045
:203D6000000000000000000000000000000303030303030303010101010000000000000027
:203D8000000000000000000000000000000000000000000000000000000000000000000023
:203DA0000000000000000003030303030303030101010100000000000000030F1F3F7F7F79
:203DC000FFFFFFFF7F7F1F03000000000000000000000000000000000000000000000000C7
:203DE000000000000000000000000000CD12A9183F133613E70CF20D100EA30D310E6E0E0D
:203E0000000000002217A918BD16EC16D0160E1700000000000000000000000000000000C8
:203E20000000000000000003030303030303030101010100000000000000030F1F3F7F7FF8
:203E4000FFFFFFFF7F7F1F0300000000000000000000000000000000000000000000000046
:203E6000000000000000000000000000CD12A9183F133613E70CF20D100EA30D310E6E0E8C
:203E8000FFFFFFFFFFFFFFFFFFFFFFFFFFFFFFFFFFFFFFFFFFFFFFFFFFFFFFFFFFFFFFFF42
:203EA000FFFFFFFFFFFFFFFFFFFFFFFFFFFFFFFFFFFFFFFFFFFFFFFFFFFFFFFFFFFFFFFF22
:203EC000FFFFFFFFFFFFFFFFFFFFFFFFFFFFFFFFFFFFFFFFFFFFFFFFFFFFFFFFFFFFFFFF02
:203EE000FFFFFFFFFFFFFFFFFFFFFFFFFFFFFFFFFFFFFFFFFFFFFFFFFFFFFFFFFFFFFFFFE2
:207E0000112484B714BE81FFF0D085E08093810082E08093C00088E18093C10086E08093FC
:207E2000C20080E18093C4008EE0C9D0259A86E020E33CEF91E0309385002093840096BBAD
:207E4000B09BFECF1D9AA8958150A9F7CC24DD2488248394B5E0AB2EA1E19A2EF3E0BF2E79
:207E6000A2D0813461F49FD0082FAFD0023811F0013811F484E001C083E08DD089C0823404
:207E800011F484E103C0853419F485E0A6D080C0853579F488D0E82EFF2485D0082F10E0A0
:207EA000102F00270E291F29000F111F8ED068016FC0863521F484E090D080E0DECF84364D
:207EC00009F040C070D06FD0082F6DD080E0C81680E7D80618F4F601B7BEE895C0E0D1E0ED
:207EE00062D089930C17E1F7F0E0CF16F0E7DF0618F0F601B7BEE89568D007B600FCFDCF1A
:207F0000A601A0E0B1E02C9130E011968C91119790E0982F8827822B932B1296FA010C016F
:207F200087BEE89511244E5F5F4FF1E0A038BF0751F7F601A7BEE89507B600FCFDCF97BE85
:207F4000E89526C08437B1F42ED02DD0F82E2BD03CD0F601EF2C8F010F5F1F4F84911BD0B8
:207F6000EA94F801C1F70894C11CD11CFA94CF0CD11C0EC0853739F428D08EE10CD085E9AE
:207F80000AD08FE07ACF813511F488E018D01DD080E101D065CF982F8091C00085FFFCCF0A
:207FA0009093C60008958091C00087FFFCCF8091C00084FD01C0A8958091C6000895E0E68F
:207FC000F0E098E1908380830895EDDF803219F088E0F5DFFFCF84E1DECF1F93182FE3DF47
:207FE0001150E9F7F2DF1F91089580E0E8DFEE27FF270994FFFFFFFFFFFFFFFFFFFF040425
:00000001FF
